:020000040001F9
:107B540038B504460D4605F091FF206808490860D1
:107B6400616808480160A0680749086005F0C9FF1A
:107B740004F0B2FA2846BDE8324004F057BA00BF18
:107B840020430020244300202843002025AB00107C
:107B9400C5A80010F1A800101DA9001051AA0010DA
:107BA400C1AA0010DDAA001005AB0010FDB2001040
:107BB400E1B200101DB30010D9AE001021AF0010C7
:107BC400C5AF001075AD0010A9AD0010C9AD00100F
:107BD400FDAD001061AB0010C5AB001089AB001007
:107BE400E5AB0010A1AC001075A800106DAE00103C
:107BF40095AE001091A8001059A900107DA900109D
:107C0400B9A90010F1A9001001DB010041B1001075
:107C1400D9B0001021B10010F5B0001001B000106F
:107C240041B0001079B00010BDB000106DB100106B
:107C340091B10010B1B10010D1B10010F5B1001034
:107C44002DB200104DB200106DB2001089B20010B8
:107C5400BDB2001001DB010001DB010001DB01000A
:107C640001DB010001DB010009AC001041AC001094
:107C740061AC001081AC001001DB010001DB0100EC
:107C840001DB010001DB010001DB010021AE00107A
:107C94008DAF0010A9AF001081B30010A5B700107C
:107CA400F1B7001039B40010F9B5001009B500108F
:107CB40029B5001049B5001069B50010A1B5001030
:107CC40025B8001095B4001069B6001051B3001027
:107CD40039B700106DB70010F5B3001015B40010DB
:107CE40089B6001019B6001049B6001099B70010F3
:107CF400A9B60010C9B6001071B80010C1B30010C5
:107D0400D9B5001091B8001051B800108DB700100B
:107D140001DB0100B5B40010D5B4001001DB010093
:107D240035B9001001DB010039A8001091BB001027
:107D340001DB0100CD9B010099C301005DC301007B
:107D440001DB010001DB010001DB010039900100CE
:107D540015A5010015A6010031A8010085A80100A0
:107D6400BDA80100D599010001DB010001DB010080
:107D740049AC0100F1A8010039DB01005188011070
:107D8400BD840110F5840110E1450110794601100C
:107D940095460110994501100945011059440110F7
:107DA4007D150110E514011005160110AD850110B3
:107DB40001DB010001DB010001DB0100C11701103F
:107DC40001170110ED170110AD1601107D180110F7
:107DD40001DB0100BD920110C59101105950011041
:107DE400B950011001DB010001DB010001DB0100DE
:107DF40001DB010001DB010001DB010001DB01000B
:107E040001DB010001DB010001DB0100297B011022
:107E140001DB010001DB010001DB0100CDFF0010EB
:107E24004500011031810110DDFE0010398101107F
:107E34004D81011001DB010001DB010001DB0100C8
:107E440001DB010001DB010001DB010001DB0100BA
:107E540001DB010001DB010001DB010001DB0100AA
:107E640001DB010001DB010001DB010001DB01009A
:107E740001DB010001DB010001DB010001DB01008A
:107E840001DB010001DB0100B907011001DB010086
:107E940001DB010001DB010001DB010001DB01006A
:107EA40001DB010001DB0100A1C1010075C101007A
:107EB40045DC010071DC01005DC10100F5A7010092
:107EC40001DB010001DB010001DB010001DB01003A
:107ED40001DB010001DB010001DB0100F17F011086
:107EE400097F0110B17F01101980011089790110F7
:107EF40001DB010001DB010001DB0100398E01100F
:107F0400518F011025900110ED8F01102D8F01105C
:107F140001DB010001DB010001DB010001DB0100E9
:107F240001DB010001DB010001DB010001DB0100D9
:107F340001DB010001DB010001DB0100AB9A010060
:107F4400EB9A010001DB0100218A010059C50100FF
:107F54005DC4010009BD0100517A01107988011046
:107F640015760110AD8101101DC1010005AB0100A2
:107F7400318E0100F0430020F3430020F24300203F
:107F8400F4430020F1430020D0890100DC430020A9
:107F9400A4410020329E0100AA9E0100F0A7010026
:107FA40092A30100218E0100ED8D010099BC010016
:107FB400979A0100BD990100099B0100FD8D010004
:107FC4001D8C0100618A0100B18B0100A18C0100AC
:107FD40059BC0100E9DB010057BB0100CBBA010029
:107FE400CB9A010055BE010041BF0100A1C00100B0
:107FF4006D8D0100A5DB01001D9B0100C1DB0100AB
:1080040011DC0100D9BE0100DDBD010015900100A5
:10801400B98F0100F1A7001091BB0010A5BC00109E
:108024008DBA001075A80010EDC40100EDBC00105D
:10803400B9A90010F1A90010F9C40100B1BA0010E7
:1080440005AB00101DA900104594011079BD001066
:1080540051BD001021BE001039A800107DA90010E8
:1080640005C50100FDA700102DBC001041BA001089
:1080740021AE0010A9AF00108DAF001089AB001025
:1080840079B00010BDB0001041AC001081AC0010FC
:1080940009AC0010E5AB001061AC0010F949001008
:1080A40071BE0010955F0010D9490010615F001087
:1080B40049C7001079520010FD5A0010855E001067
:1080C400BD4B0010E950001035CB0010E94F0010F3
:1080D400454E0010154D001095C6001001CA001041
:1080E40069CA0010B55A0010615A001021C9001065
:1080F400954A0010494B001069490010B54A001018
:108104005DB9001001570010C16100108D490010C5
:10811400814C0010594B00107D4B00104D61001034
:1081240025C80010D14B0010ADC80010B54C00108C
:10813400ED4A0010314C0010614A001089510010C2
:1081440029520010E5BE0010254A001079C801002C
:1081540065940110F15500109D5500106D530010E9
:10816400AD490010195900109557001039570010E7
:108174004D60001045490010814D0010FD61001054
:10818400F97201109D720110F973011085740110C8
:1081940061730110217201100D720110357201100A
:1081A400CD710110E571011059720110AD7101100A
:1081B4007D6D0010C16D0010C1680010996D001034
:1081C400C5680010C9680010BD6C0010596B001020
:1081D400756D0010596E0010796D0010B96C0010A7
:1081E400016A0010B56A001065690010256E001060
:1081F400A1680010216E0010556D0010056D00106F
:10820400D9B90010ED6D0010996C00108D6B001041
:1082140029690010956C0010ED6800109D6C001029
:10822400596800101D6C0010416900106968001045
:10823400A98C0110B18B0110ED8B0110F98D011087
:10824400518C0110258C0110118C0110818B0110AF
:10825400418D011019DE010051A500105DA500102B
:10826400A9A50010ADA5001065BF0010096300109A
:108274007D6300106962001035630010BD63001057
:10828400AD93001071930010898F0010DD930010DE
:1082940015DD0100598F0010BDB2001089B2001025
:1082A40019680010F9C00010D567001015C000103F
:1082B4006DB100104DB200106DB2001025640010B5
:1082C400216500109D6500101D66001025660010D4
:1082D40085660010BD66001081670010296D0110CD
:1082E40021700110196F0110716D0110896E011058
:1082F400016F0110596E0110E56F01103971011001
:10830400FD6F011041D10100B1D10100F5A40010AD
:10831400718D0010F1800010B98000103D9901109A
:10832400018B00103544011005720010798400108F
:1083340085830010A9850010B98600109986001065
:1083440021C80100097F0010AD7E00109186001045
:1083540069860010818B001015D20100358600104B
:108364000DC801002DCD010045D201001FDC010024
:10837400B1970110F57F0010E971001075700010BD
:108384009D92001021860010D1920010B995001022
:10839400E1850010B57F0010DD860010053F011057
:1083A4008D820010697F0010ED6F0010996F00102E
:1083B400B170001075CA01009DD0010049890010F8
:1083C400498000109171001051720010DD9400106A
:1083D400297800109D890010D58900100995001096
:1083E4002D7A0010897C0010DD7C00105976001075
:1083F400B9940010753B0110AD7B0010FD8700108F
:108404005D880010397C0010A58A00107974001072
:1084140075940010ED7A0010197B0010E57D0010B2
:10842400497E00105D7D0010B9970110DD970110A1
:10843400A5DD0100458E00106D870010057E01103A
:108444004D800110557F01107D7F01107D7D01104D
:108454003D800110F17F011019800110E57D0110AC
:10846400917E0110D57F0110E5800110B17F0110CC
:1084740021800110D57E01102D540110AD4F011043
:108484009550011085910110C59101109D92011024
:108494007592011059500110D990011005910110E5
:1084A40025CA010091920110319201103952011034
:1084B40069520110A55001102D500110E54C011016
:1084C40091530110B94E0110BD520110A95201106F
:1084D400FD530110215301108553011089510110DE
:1084E4004D530110DD510110ED4F0110514F01109A
:1084F40099500110D14C0110D97A0110C97C011096
:108504003D7C0110317B0110BD7B0110754D0110C4
:10851400694E01102D4E0110F94C0110E952011061
:1085240009530110054E0110495C01108D5C0110C6
:10853400895D0110C95C01101D600110A15F01106B
:10854400F95E0110355F0110295E01102D5F0110E5
:108554006D5E01101161011079610110398E0110F5
:10856400598E011025900110BD8E0110818E0110CD
:108574001D6201106590011045900110815C01108D
:10858400FD5F0110BD5C0110415D0110E55B011050
:10859400795F0110D15E0110E55D0110155F0110D6
:1085A400515E0110755E0110FD8F0110518F011095
:1085B400BD8F0110F18E0110918F01102D8F0110CC
:1085C400318E0110E9610110ED8F0110716001100D
:1085D400999001104D8101100584011089840110C6
:1085E400BDFD001055FD001005FE001089FA0010B5
:1085F400CDFF001041830110BDFE0010ADFE001040
:108604005D83011011FC001059FC00105D0601107F
:108614001D060110B183011035060110A982011055
:10862400190501106D020110190601109D030110B6
:10863400710201109D040110C1030110F90301101E
:108644009D050110F5810110E1810110E90401107B
:108654002104011021810110850601108D83011070
:108664001D070110E1060110B9060110E90001100F
:108674009D060110AD0001100D830110218301102E
:10868400C9000110D50C0110D9C2010089C2010032
:10869400D514011009140110F90801104D1301102B
:1086A400E1C10100D91201107D0A01100512011067
:1086B400B1AC0100DD0D0110D50B0110D50F011077
:1086C400A90E01105D0D01101DC2010079A7010062
:1086D40097DC01006511011099450110A585011071
:1086E400F5840110FD880110291801107189011009
:1086F400B58A0110098B0110118A01100989011032
:10870400498B011041870110AD870110A587011025
:108714007D87011075870110698701108587011015
:108724000987011079860110BD860110E9870110BF
:108734008D1C0110C11D0110011E0110751F0110B7
:10874400FD1E0110E1190110E1C30100C11A01105D
:10875400F9200110251E0110351C0110811E011085
:108764004D19011019190110B51C0110851B0110B8
:10877400F91B0110AD9501104995011025950110C3
:1087840029950110A195011035950110DD93011073
:10879400859301109993011001940110FD49011072
:1087A4006D470110BD4A0110894A0110C9490110E1
:1087B400394A0110714A0110514C0110B549011098
:1087C400E54B01101D4C0110A14B0110BD470110D8
:1087D4008148011051490110B1480110754C011034
:1087E4003FC8010065240110CFC1010091EB0010C6
:1087F400EDEA0010212501101577011065770110AD
:10880400C1760110892701107D280110612801100B
:10881400E12301104524011059240110B123011052
:108824007D210110A5210110092401105D220110F0
:10883400252601109528011061290110012B011032
:10884400452C0110652301104D2301104D28011002
:1088540019F80010CDF9001085F9001011F9001075
:1088640015F2001099F3001029F10010B9F200106C
:10887400D9F0001049F1001065F4001065F50010FE
:10888400A1EC0010F1EE00108DF5001055F8001069
:10889400C1F8001099F8001069F80010FDF80010F4
:1088A400EDEC001025EE00105DF0001099EC0010C6
:1088B4007DD801008DF1001035F40010F9ED0010A1
:1088C40039FA0010F1F90010BDF10010BDF00010EC
:1088D400DDEC00105DF3001001F5001031EF001025
:1088E4001DF0001065330110CD3401103D35011029
:1088F40041360110FD350110893501106531011033
:108904005134011035330110ED3101106130011083
:10891400A1360110AD64011079650110496501109B
:10892400E56401100D640110D96601107D64011025
:108934006D66011045640110556201107D620110DD
:108944006962011025660110ED650110C96401100A
:10895400C96501109D650110296701101165011099
:1089640029640110F56601108D6401109D660110E3
:10897400616401102D63011049660110096601103C
:108984003D6701100200000016900100FD9E0100E9
:10899400DD9F010000000000020000003A8C01008D
:1089A40000613100A4890100010000000000D00230
:1089B4000A050000000000000201000000000000A1
:1089C40000000000EC00002110270000000000005F
:1089D40000000000C8890100B08901000000000007
:1089E400B4890100B8890100BC890100C089010073
:1089F40001DF0100C489010002DF0100CC8901000C
:108A04008441002004FF0517040017FC04FF05221D
:108A1400040022FC04FF0518040018FC60B1074997
:108A2400016007490A8882807321018191221421FF
:108A340082714181002070470220704701000300C9
:108A4400FE920010014611F8060C032803D1024AD5
:108A5400107800F003B87047EA430020F8B50546E3
:108A640028060C4626D500F033F81649FF2808BF1F
:108A74004E7804D0CA68144B19780818165C134F42
:108A8400FF2E04D1386850F8081F884710E02846A4
:108A940000F055F8FF2104F8021C01463D683046F9
:108AA4002E6823460022B04750B1204600F0B4F8A7
:108AB4000120F2BD2846BDE8F840002200F00EB8BF
:108AC400F2BD00BFD040002000DF01008042002042
:108AD40001480078704700BFD040002070B50C00FA
:108AE4000546164618D0280602D500F034F89047FB
:108AF400274A11788D4204D3204600F08DF80320D4
:108B040070BDA4F10C010868002804BF8A7AFF2A0A
:108B140004D0204600F080F8052070BD8D72012E2F
:108B24001C48214602D100F087F801E000F098F8D3
:108B34004FF40041284600F0B1F8002070BD10B594
:108B440080F08004022C02DB00F005F89047124804
:108B54002044807810BD1148016851F8082F7047EF
:108B640038B504460E48016888470B4905468868AD
:108B7400844206D109490B480A68006852F8243F28
:108B8400984709490A682846BDE832401047000062
:108B940000DF01002C430020D04000208042002050
:108BA4002443002038430020284300202DE9F041CD
:108BB40005461648164F01688847804638680026DF
:108BC400002458B110F8021CA94202D01CB9064670
:108BD40001E0ACB9044650F80C0CF2E74FF4004144
:108BE400284600F0C1F824B132462146384600F048
:108BF400DDF808490A68404690472046BDE8F08100
:108C04004FF40041284600F049F8EDE724430020E2
:108C14002C4300202843002080B508B9052002BD5C
:108C240010F8021CFF2901D0042002BD0C3800F00A
:108C3400DBF8002002BD001838B5044606480D468E
:108C440001688847216845F80C1C256003490A68B7
:108C5400BDE83240104700BF2443002028430020D1
:108C640038B504460B480D4601688847002145F88D
:108C74000C1C226812B9256006E00A4652F80C1C46
:108C84000029FAD142F80C5C03490A68BDE8324075
:108C9400104700BF24430020284300202DE9F04161
:108CA40080462A482A4D06785FEA08600F4632D586
:108CB400042000F0A1F8040008BF042043D04FF6BC
:108CC400FF7020806780FFF703FF2249FF280FBF52
:108CD4004E78C96836188E5DFF2EA4F10C0707D1B3
:108CE4002046FFF799FF286850F8081F884710E0CE
:108CF4004046FFF724FFFF21B97201462D68D5F8DD
:108D04000080234600223046C047E0B12046FFF7EA
:108D140083FF012017E0B04514D20F48016888474B
:108D24000E49096831F81820174321F818700C49C6
:108D34000A68904729680B4851F8242F0068904727
:108D4400002000E00320BDE8F08100BF00DF010047
:108D540080420020D040002024430020C84300204B
:108D6400284300203843002038B50D460B490A78C3
:108D7400904204460FD20A4802689047094909689C
:108D840031F8142022EA050521F8145006490A682E
:108D94009047002032BD032032BD00BF00DF010038
:108DA40024430020C84300202843002070B5044613
:108DB4000B480E46016815468847A6F10C01236846
:108DC4000A689E420CBF226045F80C2C00220A60FF
:108DD400FF228A72BDE8704002490A68104700BF4A
:108DE400244300202843002002490A6852F8383FEF
:108DF400184700BF8042002010B5040001D10020B4
:108E040010BD04F10C0080B200F008F828B1002174
:108E140001600481FF2181720C3010BD02490A688F
:108E240052F8343F184700BF8042002010B50C466A
:108E3400200409D505490878FFF7B8FE08B100F009
:108E440007F884F4004010BD002010BDEA43002060
:108E5400F0B5044685B02068134DC1692E680391AE
:108E6400816902914169019101690091C368826835
:108E740041686768006856F82750A8472168086069
:108E840014F8080C00F012F804460120FFF7B4FFB0
:108E9400010007D04220087005B02046BDE8F0402C
:108EA400FFF7DCBD05B0F0BD1C43002080B50021F8
:108EB4000A4A0A449378FF2B0BD083420AD0491CF8
:108EC4000229F5D30648016851F8082F9047FF207E
:108ED40002BD907041F08001C8B202BDD0400020B4
:108EE4008042002001490870704700BFEA43002017
:108EF400DFF800F0B992011070B5040082B0256863
:108F04004CD0287A8DF800006846697A8DF80110F3
:108F1400FFF7EEFFE86808B122490160286908B14B
:108F240021490160214E2878307068787070A878E3
:108F3400B070A0680178F170A068416871608068C1
:108F4400B06060680168F160806810B900F032F8C0
:108F540000E070616068C06810B900F02BF800E0B0
:108F6400B0616068406810B900F024F800E0306136
:108F74006868F0610121E0688268106800F030F8E8
:108F8400E068C06810B900F015F801E0084908600D
:108F9400E0684168006800F031F873BD002000F01B
:108FA40009F873BDB9DA0100EFDA01008441002049
:108FB4008042002080B5010002BF06490A78012AD8
:108FC40004D00549054A097813689847BDE801406B
:108FD40000F01EB8B2410020ED430020CC40002038
:108FE4000200034A08BF0348106003480170704739
:108FF400CC40002097AC0100B2410020024A10602E
:1090040002480160704700BF3C43002040430020F9
:1090140070470118DFF800F0FD880110DFF800F058
:1090240005810110DFF800F051F50010DFF800F0C1
:10903400BD8401107CB5144600254FF48063C21A28
:109044008C4E38D0521E3DD0521E40D0521E45D0B8
:10905400521E4AD0521E4FD0521E54D0521E59D0C6
:10906400521E5CD0521E62D0521E00F08980521EE5
:1090740000F08D80521E00F09180521E00F0968008
:10908400D21E5FD0521E00F09D80521E00F0A680BA
:10909400521E00F0A980521E00F0B980521E00F04A
:1090A400BC80521E00F0C180521E00F0C480521ECB
:1090B40000F0CB80D2E0012963D12078022860DC63
:1090C4007070D5E002295CD120883084D0E0012979
:1090D40057D12078012854DCB070C9E0012950D15F
:1090E400207804284DDCF070C2E0012949D12078B1
:1090F400012846DC3071BBE0102942D11022214600
:1091040006F134009EE001293BD12078012838DCA7
:10911400F071ADE0012934D12078B072A8E00429BF
:109124002FD12068544988423DD27062A0E00029C2
:1091340027D1FFF76FFF10B900F084FA18E001207F
:10914400F07395E007291CD10622611C684600F0E3
:1091540033FC20780022694600F03AFC04460A2CCD
:1091640080F28580FFF756FF30B9204600F076FA8A
:10917400502000F081FC22E031190120087577E0CD
:10918400012969D12078012866DC307270E0012958
:1091940062D120780A285FDA707269E001295BD114
:1091A4002078C11F0A2957D2F07261E0012953D1F6
:1091B400B17B2078B073002908BF012858D100F092
:1091C400E1F955E0012947D12078022844DC3073C5
:1091D4000CBF01200020FFF721FF49E001293BD10A
:1091E4002078FFF71FFF43E0602909D1002C33D01A
:1091F4006022214606F17C0000F04BFC012004E0D3
:10920400012929D1002C27D02078707330E001295E
:1092140022D10CB3207870712AE026291CD1DCB14C
:109224002622214606F144000CE0012914D19CB108
:109234002078B0711CE010290ED16CB110222146A7
:1092440006F16C0000F025FC12E0012904D11CB1E8
:1092540020780A4908700BE0182509E0282806DA66
:10926400022904D12188FFF7E1FE054600E002252A
:10927400284676BDE83F002040420F00EB43002023
:10928400DFF800F0557F0110DFF800F091B1001015
:10929400DFF800F06DB10010DFF800F09D920110CE
:1092A400DFF800F001170110DFF800F0A9AD00109D
:1092B400DFF800F0C9AD0010DFF800F0518B0110A9
:1092C40070B5054606236B4388B00E46144620331A
:1092D40004AA0E21D8B200F0E6FB002837D10622FA
:1092E400FF2104A800F0EFFB88BB70356A4610210B
:1092F400E8B200F0D8FB40BB684600F03DF830000F
:1093040008D11022002100F00CF9F0B9102200F06D
:1093140021F812E0694600F021F838B9200016D08F
:109324006946002000F01AF888B106808178A142CD
:109334000BD084700CB900210180684600F01CF841
:109344006A461021E8B200F0CEFB012000E00020C4
:1093540008B070BD0021684600F0D4BB002231F88B
:109364002230834205D0521CD2B2042AF7DB0020FB
:10937400704701EB82007047002130F82120D2436E
:1093840020F8212000EB8102491C9378DB43042957
:109394009370F2DB70472DE9F04FDFF8C075DFF80A
:1093A400C095DFF8C0B58046F86A0626002885B067
:1093B4000D464FF00E0A3FD1B8F1000F18BF002D33
:1093C40000F0A680404600F0C0F803460A2B3B7428
:1093D40017DB00240AFB04F00622FF21584400F0A6
:1093E40072FB60B9641CE4B20A2CF3DBDFF8781575
:1093F400087800281ABFDFF8742514780A243C740E
:109404001AE06869C0B1734323336A461721D8B29E
:1094140000F049FB80B9102200F082F860B999F895
:10942400000038B998F80600414600F00100FFF743
:109434002BFF01E000F094F9387C0A2868DAF96A15
:10944400704371BB203042460E2100F066F8387C30
:1094540000F0C0F81022FF21FFF77DFF387C703048
:109464006A461021C0B200F03EFB387C0AFB00F3D0
:109474000E2241460BEB030000F00BFB6A696AB154
:1094840099F8000040B9107C002302F1110100F0AA
:109494000100FFF7FDFE01E000F062F9FD6200202B
:1094A40037E08A6832B1213000F036F8F96A0020DA
:1094B4008860F4E70A6932B1223000F02DF8F96AC5
:1094C40000200861EBE74A693AB12330102100F02B
:1094D40024F8F96A00204861E1E7CA6892B12430AF
:1094E400102100F01AF8F86AC168387C464301F18B
:1094F400100225360421F0B200F0F5FAF96A0020D2
:10950400C860CCE7B87B08B100F008FA00F036F97F
:10951400012005B0BDE8F08F1C21C0B200F0E3BA11
:10952400FF21684600F0CFBA00B50623584385B042
:1095340020306A460E21C0B200F0B5FA00280CBFF4
:109544009DF80D00002005B000BD70B5044600254F
:10955400DFF810640E20684306222146304400F0F0
:10956400DBFA28B96D1CEDB20A2DF3DB0A2070BDBD
:10957400284670BDDFF8F8030178012908BF00F020
:10958400E1BA704738B500240E210623DFF8D4036E
:1095940061436343451820332A460E21D8B200F0B4
:1095A40082FA58B10622FF21284600F0ABFA0622BF
:1095B400FF21E81D00F0A6FA00206873641C0A2C41
:1095C400E2DBDFF89813887B08B100F0A7F9BDE867
:1095D4003140D3E038B50A230A24DFF89023611E12
:1095E400E4B2144414F8014C844206D00C46C9B2C7
:1095F4000029F4D1DBB2184607E00B46FAE7141849
:10960400115C657815546170401C0928F7DB092B3F
:1096140005DABDE838400A21052000F064BA31BDFE
:1096240070B500240025CF4E0E2068430622FF218A
:10963400304400F048FA00B9641C6D1C0A2DF3DBB9
:10964400E0B270BD10B50024204600F007F8641C99
:10965400E4B20A2C01DA0100F6D010BD2DE9F0477E
:10966400BE4F397C884294B0044609D13878012130
:10967400FFF77AFB38780221FFF776FB00F063F9F5
:10968400062505FB04F808F120066A460E21F0B20F
:1096940000F009FA00285ED10622FFF741FF0028F6
:1096A40059D11C22FF2104A800F02CFA1022FF211A
:1096B4000FA800F027FA387C454323350BAA17215D
:1096C400E8B200F0F0F990B91022FF210BA800F0E5
:1096D400FAF960B9A249087838B99DF806006946D4
:1096E40000F00100FFF7D0FD01E000F039F80E2290
:1096F400FF21FFF730FE6A460E21F0B200F0F3F9C5
:10970400064608F1210000F034F8074608F122006B
:1097140000F02FF8054608F1230000F025F88146F3
:1097240008F1240000F020F8824608F1250304AA79
:109734000421D8B22F4300F0D6F949EA07074AEAD0
:109744000707074370340FAA1021E0B200F0CBF9E9
:1097540007433E4300E00026304614B0BDE8F087DE
:10976400834901200870704704AA1021C0B200F098
:10977400BAB904AA1C21C0B200F0B5B980B5FFF78C
:109784004FFF0228A7BF02208DF800000A218DF8A0
:1097940000106A460121052000F016FA01BD2DE9EA
:1097A400F041AAB007460D469046FFF769FD040054
:1097B40008BF142000F0AF80A422FFF7CBFDADF862
:1097C40000700DF12606654FF878B97A279A8DF85E
:1097D40004005208F87A8DF8A0004B0801F001004B
:1097E40040EA420222F0020203F0010342EA430289
:1097F400080922F4807200F0010042EA00224809BC
:1098040022F4007200F0010042EA4022880922F4A6
:10981400806200F0010042EA80228908387B22F04D
:10982400040201F0010142EA8102022827920CBFDE
:10983400012000207074FFF72FFD412807DB387BDF
:1098440000B108209DF8991008438DF89900787BA1
:10985400B8B10121B174202207F17C010DF1390066
:1098640000F017F9202207F19C010DF1590000F0D6
:1098740010F9202207F1BC010DF1790000F009F97B
:1098840000E0B074B87940B18DF82600102207F1D9
:109894006C010DF1270000F0FCF87879B0B10622D4
:1098A400A11D07F1440000F037F978B178798DF8FB
:1098B4000500102207F15A010DF1060000F0E9F845
:1098C400102207F14A010DF1160009E038798DF8EC
:1098D4000500002806D0102207F134010DF106001E
:1098E40000F0D7F8F87930B11DB1279840F00200A4
:1098F4002790012100E000219DF899000143B878E8
:109904008DF8991000B1042001438DF89910684630
:109914004146FFF7C5FC2AB0BDE8F08138B5FFF732
:10992400C3FC00240E210F48614345180622FF2181
:10993400284600F0C8F810B92946FFF7B9FC641CA2
:109944000A2CEFDB31BD10B5044CE06A18B1FFF707
:1099540063F90020E0620A20207410BDE83F002073
:109964005A4F002084420020EB4300201043002083
:10997400EC43002038B50E4C0E4D207004F1DC0091
:10998400FFF79AFCFFF7FEFD2A460A21052000F0A6
:109994008AF830B10020C0F109012954401C0A287A
:1099A400F9DB2078BDE834401021FFF777B900BF18
:1099B400E83F00201043002011444B1E03E013F83D
:1099C400011900F8011B11464A1E0029F7D17047FE
:1099D4002DE9F04385B0144688460A2698F80520F8
:1099E400022102F0C002C02A08BF002102D0402A8E
:1099F40008BF0121020018BF022803D0032818BFA2
:109A040000290CD14046FFF7A0FD06460A2E2CDAA9
:109A14005CB306224146204600F03BF825E00229CB
:109A240023D10025DFF84C902F460E20784348447C
:109A340006224146C01D00F06FF820B96D1CEDB23E
:109A44000A2DF1DB11E00A2F2E460EDA6CB1062046
:109A5400474320376A460E21F8B200F024F820B9B3
:109A640006226946204600F014F8304605B0BDE8E9
:109A7400F08300BF84420020642808DC00036421D2
:109A840090FBF1F0C0F5805080B200F0E1B8042002
:109A9400704703E011F8013B00F8013B13465A1EDE
:109AA400002BF7D17047E0B5ADF806000B46002057
:109AB400ADF808008DF804000092DDE901010022F0
:109AC40000F0E4F80EBD10B548B1002300E05B1CC3
:109AD400DCB2944205D2DBB2C45C8C42F7D00020E5
:109AE40010BD012010BD82B01346ADF802000A4635
:109AF4000020ADF804008DF80000DDE9000102B09B
:109B040000F0DEB810B5044610460A460146204669
:109B140000F05AF9204610BD10B513465A1E3BB149
:109B240010F8013B11F8014BA342F6D0002010BD00
:109B3400012010BDDFF800F0B1B10010DFF800F033
:109B4400A585011030B51D49087885B008B10120FC
:109B540031E0FFF7EFFFFFF7F1FF0346002200219A
:109B64000020FFF795FB00240E211548614345189A
:109B74000622FF212846FFF7A6FFB0B9062060435E
:109B840023306A461021C0B2FFF78DFF68B9102256
:109B9400FF216846FFF797FF38B9A87900236A4682
:109BA400294600F00100FFF773FB641C0A2CDBDB81
:109BB40004490020087005B030BD00BF5A4F002092
:109BC40084420020EC430020F8B5144600250E46DC
:109BD4001D4F1E4B40B1012815D0042818D006286B
:109BE4001ED0072822D02CE0162928DA16220021BC
:109BF40007F10C00FFF786FF3246214607F10C00FF
:109C0400FFF747FF1EE0022E19D12088388119E0A2
:109C1400082E14D138462146082200F009F911E033
:109C2400012E0CD1DA6903F1280104E0012E06D1DA
:109C3400DA6B03F14801207800F036F902E01825C8
:109C440000E002252846F2BDF04000201441002027
:109C540038B50D4D2C78210001D0012032BD698822
:109C6400C1F5805189B2814200D350B900F038FA6D
:109C74000020687000F09AFA002802BF6C78002C6B
:109C84000124204632BD00BFAE41002013B50A4A6C
:109C9400BDF8021050881C46C9B200F05CFA0100FD
:109CA40008D00648049A0003A3B2000E00F070FB2B
:109CB400002016BD012016BDAE41002000E00100C9
:109CC4002DE9FB4382B03E4CBDF80A800020607051
:109CD4001546608899465FFA88F100F03CFA060060
:109CE40016D00027FFB2A9B28F4264D235480003D0
:109CF40001236A46B1B2000E00F04AFB9DF8000051
:109D040019F80710884204BF761C7F1CEAD052E081
:109D1400ADB2ED1C681005EB9075AD10AD04608814
:109D24002D0C2818001D41F20101884203DB00F0CC
:109D3400D7F900F03BFA66884FF6FF7045F400410E
:109D4400ADF80000ADF80210AF1901226946B8B2AF
:109D540000F0B0FABDF80200C0F30E00ADF8020046
:109D640001226946B8B200F0A5FAAA05120E4946C6
:109D7400304600F09FFA5FFA88F040F40040ADF8F6
:109D8400000001226946B8B200F094FABDF8000060
:109D9400C0F30E00ADF8000001226946B8B200F02D
:109DA40089FA607820B960882D1D2D1865800020FF
:109DB40005B0BDE8F083A8B28742A9D1F7E700BF98
:109DC400AE41002000E0010062F30F2262F31F4263
:109DD400401810F0030308D0C91A1FD3DB0748BF8B
:109DE40000F8012D28BF20F8022D130030B41446CA
:109DF4001546103928BF20E93C00FAD8490728BF86
:109E040020E90C0048BF40F8042D890028BF20F841
:109E1400022D48BF00F8012D30BC7047C91818BF87
:109E240000F8012DCB0728BF00F8012D704700284A
:109E340062B38B0708D0521E11F8013B00F8013BB6
:109E440000F024808B07F6D1830740F0208000BF08
:109E5400103A07D330B4B1E83810103AA0E83810FB
:109E6400F9D230BC530724BFB1E80810A0E80810A9
:109E740044BF51F8043B40F8043BD20724BF31F8F7
:109E8400022B20F8022B44BF0B7803707047083A6A
:109E940007D3B1E80810083A40F8043B40F804CB73
:109EA400F7D25307E4E7012810B50B7884074CBFB9
:109EB40043F0020303F0FD0304064CBF43F08003A8
:109EC40003F07F0304074CBF43F0080303F0F703D8
:109ED40084064CBF43F0200303F0DF030B70AA2178
:109EE400084203D0107840F00C0003E018B9107851
:109EF40000F0F300107010BD2DE9F0410F46154637
:109F0400387802281E464FF000085ED17868017840
:109F14004078069C01EB002080B221001CBFB0F504
:109F2400285F0B2056D14FF42851401A08D0401E08
:109F34001AD0401E28D0401E1ED0401E2AD044E015
:109F4400F86800F041FA079A80B2031B9342B8BF45
:109F5400021B92B21019162803DA3280F86801192C
:109F64000EE04FF00D0834E0F868008802213180DB
:109F74002870000A68702CE0062030800622F968F8
:109F84002846FFF786FD24E001203080F868007839
:109F940028701EE0F868B0B108213180018829706A
:109FA4000188090A69704188A9704188090AE97021
:109FB400818829718188090A6971C188A971C08859
:109FC400000AE87105E0308003E0A6F800804FF055
:109FD40001084046BDE8F0812DE9FC4B0E46804661
:109FE40030780027022891461D466BD170680178AD
:109FF40040780A9CDFF8D4B001EB002080B24FF423
:10A004002851401A06D0401E29D0401E4CD0401E74
:10A0140038D057E0F06800F0D7F980B2A04204D3FA
:10A024002919162903DB0D274DE007274BE0F368B8
:10A034002A4649461819FFF72CFD2C19F068A4B2DA
:10A04400C4F1160200212044FFF75CFDDBF8000098
:10A05400002838D00268100035D0002121E07CBBF4
:10A06400022DE0D199F8000099F8011000EB0120CD
:10A07400F1680880DBF8000028B30268100022D0E1
:10A0840001210EE0E4B9062DCDD1F068062249463F
:10A09400FFF7FFFCDBF80000A8B10268100012D043
:10A0A4000321404690470EE054B9012DBBD199F8E5
:10A0B4000000010013BF0128F1680870802702E046
:10A0C4000B2700E001273846BDE8F68BD843002073
:10A0D40080B54FF48010009001226946002004E00E
:10A0E40080B5002000900122694600F0E3F801BD2C
:10A0F40070B59F4801688847054600F022F9064676
:10A104009C4800030021000E00F060F900F06AF999
:10A114000446304600F00BF90CB100F003F9284670
:10A12400BDE8704094490A68104710B582B040F603
:10A13400FC7400F036F82146000E00F029F900996D
:10A1440011F1010F03D1241FA4B2042CF1DA8B48BE
:10A15400241D448013BD38B50C46051F00E02D1F97
:10A16400ADB2042D17DB00F01CF82946000E00F0F8
:10A174000FF9BDF80010BDF80200A14203D1C0B22E
:10A184002D1AA8B232BD0104E9D4011D8D42A8BF25
:10A194002D1AE4DA01E0002032BD0020FEF70AFFA8
:10A1A400F9E77448000304236A4670472DE9F04F29
:10A1B40083B000F0C6F8714FDFF8B8918346788811
:10A1C400041F4FF0FF080025A4B24FEA193A2DE00E
:10A1D4004FF088508119042201A8FFF729FEBDF829
:10A1E40004005FFA88F188421BD0BDF80600361AD5
:10A1F400361FB6B2311F40F6FC729142E8D3BDF867
:10A2040002104FF088500B1D4219611A9BB289B29B
:10A214005FFA8AF000F0BCF8BDF8020045192D1D64
:10A22400ADB2BDF80200241A241FA4B2042C26DB0C
:10A2340004236A4621465FFA8AF000F0A9F8BDF8C3
:10A2440000104FF6FF70814201D008000ED1BDF816
:10A2540002100804E8D4091D8C42E2DA0020FEF75B
:10A26400A9FE584600F063F8002021E00104D8D488
:10A274005FFA88F18842D4D080462E1FB9E7FFF7F1
:10A2840037FF45B12A464FF0885109F1040000F028
:10A29400BFF8FFF71DFF584600F049F8787828B951
:10A2A400291DC5F580557980A8B201E00020788089
:10A2B400BDE8FE8F2DE9F0472E4C05460E46240BD3
:10A2C40082B017462946E0B200F080F8814628485B
:10A2D40001688847804600F034F88246BA00314667
:10A2E400484600F095F8504600F021F801E02D1D95
:10A2F400361D3846471EC0B270B104236A46A9B25F
:10A30400E0B200F045F804223146684600F086F8D1
:10A314000028ECD000F006F8404617490A68904738
:10A32400BDE8F3871548012141700170704700B9F9
:10A33400704710B5124A134813685C680121A0479E
:10A3440010BD70B50E4C0F4D21688A6828469047A1
:10A354000646C0B250B12268536800212846984787
:10A3640021688A68284690470028F9D1F0B270BD68
:10A374002443002000E0010028430020AE410020D7
:10A38400D801001000400340002000F079B80328F1
:10A3940070B514461D4600F019F8064608480168D1
:10A3A400884703E016F8011B04F8011B29464D1EDB
:10A3B40089B20029F6D1BDE8704002490A68104705
:10A3C400244300202843002000F082B81D2390FB82
:10A3D400F3F31D2202FB130001F5E83101EB003019
:10A3E4007047022980B508490968496905E080B5C4
:10A3F400054B1B689B69984700E08847034A002186
:10A40400116002BD00000000A80100108404604235
:10A414000B4601461846FFF7EABF002A0300002056
:10A4240013F0030F09D0521E22BF13F8010B11F8C9
:10A4340001CBB0EB0C00F3D07047121F22BF53F8CE
:10A44400040B51F804CB6045F7D0121D0AD200BAB0
:10A454009CFA8CFCB0EB0C0038BF6FF0000088BF96
:10A4640001207047521E22BF13F8010B11F801CBD3
:10A47400B0EB0C00F6D0521C08BF10467047012AFE
:10A48400002010B5104C6070207082B00F4800039B
:10A4940004236A460021000EFFF77AFF0099B1F504
:10A4A400801F02D1FFF741FE0CE0080004D1FFF742
:10A4B4003CFEFFF77BFE05E0FFF71AFEFFF708FE00
:10A4C40004206080607816BDAE41002000E00100E9
:10A4D40000F10103810704D010F8011B89B1810741
:10A4E400FAD10268B2F10131914311F0803F04BF07
:10A4F40050F8042FF6E710F8011B11B110F8011BF6
:10A50400FBE7C01A7047042ADFF800F0F584011055
:10A5140038B500244FF480630D46C21A344928D05C
:10A52400521E28D0521E28D0521E28D0521E28D087
:10A53400521E28D0521E29D0521E29D0521E29D074
:10A54400921E2AD0521E2AD0521E2AD0521E2AD01F
:10A55400521E2AD0D21E2BD0921E2BD0521E2CD08B
:10A56400521E2CD0521E2DD0521E2ED0521E32D02E
:10A5740035E0487827E0088C35E0887823E0C8780F
:10A5840021E008791FE01022343120E0C8791AE074
:10A59400887A18E0486A286028E0087A13E0487A44
:10A5A40011E0C87A0FE0887B0DE0FFF739F80AE084
:10A5B400087B08E060227C3109E0487903E0262228
:10A5C400443104E08879287010E010226C31284668
:10A5D400FFF75FFA0AE007480178297006E02828A7
:10A5E40003DAFFF791FF288000E00224204632BD01
:10A5F400E83F0020EB430020DFF800F07D18011055
:10A60400DFF800F0AD160110DFF800F0BD92011084
:10A614002DE9F04F93B01E46914601AB0022C3E9E9
:10A624000022474F01AAFFF7D3F98046B8F10A0F79
:10A634006DDAFEF779FF0546787802280CBF01240D
:10A6440000240620082E00FB08FA04D1280758BF6E
:10A654000AF1220B01D50AF1210B1C2200210CA8BE
:10A66400FFF750FA0CAA1C215FFA8BF0FFF71BFAD4
:10A6740070B99DF84A00C01F0A2809D2EA0800945C
:10A684000CAB02F0010205F001014846FFF7B4FFEC
:10A694001422002103A8FFF735FA0AF1240003AAC3
:10A6A4001021C0B2FFF7FFF990B91022FF2103A8CF
:10A6B400FFF709FA60B90AF1250307AA0421D8B201
:10A6C400FFF7F1F903AA05F001014846FFF798FFE7
:10A6D40008F1700008AA1021C0B2FFF7E4F998B994
:10A6E40008A8FEF749FE002508AC294634F82100E5
:10A6F40038B108AA02EB810201469278484600F07C
:10A7040021F86D1C042DF0DB4046FEF763FF042E98
:10A7140004BF787802280ED1F879002100B1012114
:10A72400B87800B104200143387B00B1082001430C
:10A734004846FFF769FF002013B0BDE8F08F00BF63
:10A74400E83F0020E0B58DF808200223120A8DF8B6
:10A754000920FE2201920022009202AA00F00AF8C7
:10A764000EBD0000DFF800F0BDFD0010DFF800F0C2
:10A77400991401102DE9FE438046894617461E466A
:10A7840002A94846FFF7EEFF05002BD0BDF80800EC
:10A79400FFF7ECFF844618B30A980B9C00900194D1
:10A7A40033463A4629464046E0470646D8B9FE2C89
:10A7B40019D02878022816D168680178407801EB0E
:10A7C400002080B242F6021188420CD138787978A0
:10A7D40000EB012082B24946404600F009F802E04D
:10A7E4000E2600E001263046BDE8FE83052A00005F
:10A7F400F8B50D4F04463878FF280D46164611D09B
:10A804000A20FEF7F9FA68B1B121017044800021F1
:10A8140041700171C580068101463878BDE8F44075
:10A82400FEF71CB9F1BD00BFA745002070B5FEF7C7
:10A83400F1FB08BB114CE07B012809D1FEF702FFB4
:10A844000021E1730A2204F11400FFF75BF90CE024
:10A8540000256619307D012804D12846FEF7FEFE46
:10A86400002131756D1C0A2DF3DB5020FFF704F92C
:10A87400BDE87040FEF786BE70BD00BFE83F002013
:10A8840010B5054C2178A0622620FEF7CFFB207876
:10A89400BDE8104000F002B8E83F0020014908700C
:10A8A400704700BFA7450020DFF800F02918011009
:10A8B400DFF800F0C117011038B504460025080080
:10A8C4000CD1094B0848B2FBF3F300FB13222146D9
:10A8D4001046FFF7E9FF050003D001212046FFF7EA
:10A8E400E7FF284632BD00BF40420F00F0B50646E0
:10A8F40085B0B078774F062800F0E680092800F08C
:10A904009B800A2827D00B2806D00E2800F08B80C5
:10A914000F2800F0A280DAE000F0DEF80028FAD078
:10A92400B86A00281CBF0468002C07D03069009066
:10A93400737B327B7189F01CA047C8E03069718950
:10A94400002814BF0120786AFFF7AEFF0028F4D076
:10A9540070890121A4E070780024002850D1B179D5
:10A96400C8074DD5F86A00284AD10E22002168464E
:10A97400FFF7C8F8B088FEF783FC0400DDD07569E2
:10A98400CDB1287C8DF80600062205F11101684638
:10A99400FFF77FF80622A11D04F10C00FFF779F8F8
:10A9A400062205F11101A01DFFF773F8287C40F081
:10A9B4000200607107E060798DF806000622A11D8F
:10A9C4006846FFF766F8B1799DF80D00890801F033
:10A9D400010108438DF80D00B1790A074CBF082125
:10A9E400002108438DF80D0031466846FEF7D3FC7C
:10A9F40028B938780221FEF751F9002068E01524BF
:10AA0400B86A00281CBF4368002B60D07278B088F5
:10AA14000121984720005AD0BB6AB08822465C685E
:10AA24000321A04753E0B86A00281CBF4368002BE9
:10AA34004DD07278022144E0F0780022311DFEF7F7
:10AA4400C7FF0A2843DA06235843253006F10C02CF
:10AA54000421C0B2FFF747F839E0B088397A09B168
:10AA6400797A1DE0797809B9052119E0FEF708FC27
:10AA740004002CD0B07AC1070AD5607940B1F168DE
:10AA8400C1F3402121B96A46A11DFEF7A1FF28B1F7
:10AA9400387B022807D1B17A080704D4B08803218F
:10AAA400FFF706FF13E06179B08806F10802FEF7AC
:10AAB40076FEB86A00281CBF4368002B07D000222A
:10AAC4000021B088984702E0B088FFF7AFFE01206C
:10AAD40005B0F0BDE83F00200248006800B1012045
:10AAE400704700BFA44E0020DFF800F089840110F5
:10AAF400DFF800F055FD0010DFF800F005FE00104F
:10AB0400F0B50D46280485B04C4C25D52078FEF7C9
:10AB14004DF804001DD021780120B0290FD0B129AF
:10AB240005D0D02904BF2046FFF7E0FE0DE02079D0
:10AB340060B92289E188608800F084F806E0217910
:10AB440004F10800FFF7D0FF00E010B12046FEF743
:10AB540063F885F400406EE0A80709D500210020C1
:10AB6400FEF719FC002885F0020551D1022150E0BE
:10AB7400E80753D5E06A8688206B4FF6FF7748B91B
:10AB840004F12201009102232D4A39460120FFF7E6
:10AB9400AFFF206385F00105216B21B3FF200390F3
:10ABA40002220023029201930DF11200009004ABE3
:10ABB400628C304600F07AF868B99DF810209DF850
:10ABC400110002EB002290B228B1206B418992B2AD
:10ABD400304600F037F8628C206B00233946FFF7CB
:10ABE4008BFF2063A0B9A06A00281CBF4368002B18
:10ABF4000BD0E06A8088002201219847E06AA36AAA
:10AC040080885C6800220321A047FEF79CFE03E0D5
:10AC140001212078FEF742F828460CE0680748BF77
:10AC240085F0040007D4E80604D5FEF78BFF85F011
:10AC3400100000E0002005B0F0BD00BFE83F002098
:10AC4400E6A30100F8B50C4615264FF6FF718842BD
:10AC540015460BD100272A4621463846FEF730FB1D
:10AC640000B100267F1C0A2FF5DB10E0FEF708FB7D
:10AC740060B1811D40790022FEF7AAFE0A2806DA97
:10AC84002A462146FEF71CFB002600E01426304627
:10AC9400F2BD7047DFF800F0D5140110DFF800F0C2
:10ACA40011610110DFF800F0891401102DE9FE4F45
:10ACB4000D468146287AC00693461E464FF000088A
:10ACC4000CD55846FFF7E6FF030000F0E3800A22A4
:10ACD400294648469847002880464DD128780C9F3D
:10ACE4000D9CDDF838A002281AD1686801784078F4
:10ACF40001EB002080B24FF42051401A012810D9F2
:10AD0400801E3AD0401E14D0FD3876D0401E00F08C
:10AD14007D80401E6AD0401E6FD0401E00F091809E
:10AD2400A7E0002C2AD1E8680178398002784168CC
:10AD340083E0002C22D1012038800021E8680078CB
:10AD440030706889401C80B2FFF70CFD398860B10F
:10AD54000278921C51183980418971704189090A1D
:10AD6400B17002784168F01C68E0081D3880042244
:10AD74000021701CFEF7C6FE8EE0002C62D1E8684C
:10AD84000488042038803470200A70700DF10201A8
:10AD94002046FFF7E7FC05001ED0EC68BDF8022052
:10ADA4004FF6FF796B464946FFF7A6FE40B92B786C
:10ADB4006A683B480221FFF771FF08B9ADF80090BB
:10ADC400207802280AD161680222301DFEF761FE54
:10ADD4003888801C388001E0ADF80040BDF80000E0
:10ADE400B070BDF80000000AF07055E054BBE8688C
:10ADF4000168484600F056F802E01CBBE868008889
:10AE0400022139803070000A707045E0E868FFF76D
:10AE1400DBFA82B2A242B8BF4FF007083CDB94428F
:10AE240008BF002206D00AEB04019142B2BF524689
:10AE3400121B92B23A80E96821443046FEF729FE9B
:10AE44002AE014B14FF00B0826E0E86807213980A6
:10AE540001783170417871704188B1704188090A74
:10AE6400F17001793171C1887171C088000AB071C3
:10AE740012E05846FFF716FF844658B10F98029027
:10AE8400CDF804A000943B46324629464846E047A4
:10AE9400804601E04FF00E084046BDE8FE8F00BF3B
:10AEA400AA9E010080B500F003F800B1807802BDCD
:10AEB40030B5002200E0521C074C2578D3B2AB42D7
:10AEC40007D2D2B231F822308342F4D101EB8200AE
:10AED40030BD002030BD0000694F002038B54FF66A
:10AEE400FF74A0420DD10020094A137898420EDA6B
:10AEF40021F8204001EB80050023401CAB70C0B258
:10AF0400F3E7FFF7D5FF10B104800021817031BD54
:10AF1400694F0020002808BFFEF74CB801490860BB
:10AF2400704700BF1C430020F8B5104F0E46397817
:10AF3400FF29054618D006F1080080B2FDF75CFF32
:10AF4400040011D029782170FF206070668004F11C
:10AF54000800606032462946FEF79BFD387821469A
:10AF6400FDF77CFD3046F2BD0020F2BDB341002068
:10AF740010B5034A034CD36822788018195410BDC5
:10AF8400D040002000DF010038B50F490F4D0020EC
:10AF9400086000F021F800F031F80D4804786000F2
:10AFA400FDF73CFFE8606200FF21FEF7ABFD0222E3
:10AFB400FF21A81CFEF7A6FD00F03CF80548016837
:10AFC400891E0160002032BD2C430020D0400020A7
:10AFD40000DF01004043002080B5054900200860DF
:10AFE40004490A6852F8180F80470349086001BDF4
:10AFF400D443002080420020D04300200349044A67
:10B004000020088001211170704700BFE843002030
:10B01400EF430020DFF800F0C9790110DFF800F0F9
:10B0240059880110DFF800F0D9750110DFF800F03D
:10B034007D8101107CB51E490C786000FDF7EEFEA1
:10B044001C49086062000021FEF75CFD002000F04E
:10B0540041F8012000F010FB022000F027FB032040
:10B06400FFF7D8FF0420FFF7D9FF0520FFF7DAFF29
:10B074000620FFF7DBFF072000F034FB08200E4C0E
:10B08400FEF778FC0920FDF72DFF256855F8046FBD
:10B0940001AB6A4600211020B04700249DF800103F
:10B0A4002046FFF765FF641C0A2CF7DB73BD00BF65
:10B0B40000DF0100C843002080420020DFF800F0D8
:10B0C400E5710110DFF800F01D6E0110DFF800F0EB
:10B0D4004D7101102DE9F84FDFF8F484DFF8F41412
:10B0E40088F80000002008600821DFF8EC040170F3
:10B0F4000D2141804FF408718180DFF8E004DFF80E
:10B10400E01401608A7EDFF8DC040270FF2ACB7E43
:10B11400437008BFFF2B0D7F85704E7FC6708F7FF5
:10B124000771C97F417115D1FF2D08BFFF2E11D1C1
:10B13400FF2F08BFFF290DD1DFF8AC140A78027085
:10B144004A7842708A788270CA78C2700A79027129
:10B1540049794171DFF894140278DFF89444DFF8F8
:10B164009474DFF894B40A70FF2542784A708278A8
:10B174008A70C278CA7002790A7140794871DFF81E
:10B184007C14DFF87C04057045708570C57005710A
:10B19400457100200880DFF86C14DFF86C04466BFE
:10B1A40070780870DFF8641430780870DFF8601481
:10B1B400B0780870DFF85C14B0680079401E08703D
:10B1C400DFF85414F0780870DFF85014F068086061
:10B1D40030692060006880472168091D3846096885
:10B1E4008847DFF83C04DFF83C143862DFF83804A1
:10B1F400786270690860DFF83414B069DFF830648D
:10B2040008609BF80400FDF709FE306008B900F0FF
:10B2140042B99BF80500DFF81C74FDF7FFFD3860A8
:10B2240008B9306835E19BF80600DFF80C44FDF7F7
:10B23400F5FD206020B93068FDF7D6FD386828E1B7
:10B244009BF80700DFF8F493FDF7E8FDC9F8000068
:10B2540038B93068FDF7C8FD3868FDF7C5FD2068CA
:10B2640017E1DFF8A81309789BF80000DFF8D0A3F2
:10B27400891C484380B2FDF7D1FDCAF8080058B9CB
:10B284003068FDF7B1FD3868FDF7AEFD2068FDF7C5
:10B29400ABFDD9F80000FCE0DC480078010000F0C8
:10B2A400FD80BBF80210DFF89CB3484380B2FDF781
:10B2B400B5FDCBF8040078B93068FDF795FD386822
:10B2C400FDF792FD2068FDF78FFDD9F80000FDF72A
:10B2D4008BFDDAF80800DCE0CC480078FDF79EFD31
:10B2E400D949086080B93068FDF77EFD3868FDF7FC
:10B2F4007BFDD9F80000FDF777FDDAF80800FDF7CB
:10B3040073FDDBF80400C4E0C0480078182148430A
:10B31400FDF784FDCD490860B0B93068FDF764FDE0
:10B324003868FDF761FD2068FDF75EFDD9F800007F
:10B33400FDF75AFDDAF80800FDF756FDDBF80400C6
:10B34400FDF752FDC048A3E0B04800784001FDF786
:10B3540065FDBF490860D0B93068FDF745FD386820
:10B36400FDF742FD2068FDF73FFDD9F80000FDF729
:10B374003BFDDAF80800FDF737FDDBF80400FDF7C4
:10B3840033FDB1480068FDF72FFDB04880E09F48C9
:10B3940000780001FDF742FDAE490860F0B930685D
:10B3A400FDF722FD3868FDF71FFD2068FDF71CFD41
:10B3B400D9F80000FDF718FDDAF80800FDF714FDD0
:10B3C400DBF80400FDF710FD9F480068FDF70CFD55
:10B3D4009E480068FDF708FD9D4859E08B480078B9
:10B3E4000001FDF71BFD9C49086010BB3068FDF7A8
:10B3F400FBFC3868FDF7F8FC2068FDF7F5FCD9F88C
:10B404000000FDF7F1FCDAF80800FDF7EDFCDBF8CD
:10B414000400FDF7E9FC8C480068FDF7E5FC8B4867
:10B424000068FDF7E1FC8A480068FDF7DDFC894807
:10B434002EE07648007830214843FDF7EFFC874939
:10B44400086058BB3068FDF7CFFC3868FDF7CCFCCA
:10B454002068FDF7C9FCD9F80000FDF7C5FCDAF84F
:10B464000800FDF7C1FCDBF80400FDF7BDFC7648DD
:10B474000068FDF7B9FC75480068FDF7B5FC744831
:10B484000068FDF7B1FC73480068FDF7ADFC724835
:10B494000068FDF7A9FC4FF4804192E03168012077
:10B4A400087100223068057330684573306885730D
:10B4B4003068C5733068057430684574002031689D
:10B4C400C87231684871A0213068C18003210172BB
:10B4D400072031684872002031688872282130685A
:10B4E40041820121C176002031684877316881F8B2
:10B4F4005E00012031680877316881F85D003968A1
:10B504000871386805733868457338688573386816
:10B51400C573386805743868457400203968C87282
:10B5240039684871396888724FF420703968C88066
:10B5340008818A7401213A68D17421680D732168E5
:10B544004D7321688D732168CD7321680D74216852
:10B554004D7400212268D1720121226811710021E9
:10B56400226851712168C88008810020887221688E
:10B57400887405202168C8743948006880470546E6
:10B584002A4800680068804728490968091D002086
:10B59400096888471C482049C0680978008808431E
:10B5A4003049088028463049096888470C212F48CB
:10B5B400FFF784FD1248FFF785FDFFF787FD4FF481
:10B5C400005198F80000BDE8F44FFDF767BB00BFD9
:10B5D4006E4F0020044F0020604E0020084F0020D2
:10B5E400B63F00502C4E0020E81200503C4E002084
:10B5F400F44E00207C4B0020A44100200C4F00207E
:10B60400344E00206D4F0020D08901007B4F002074
:10B614006B4F0020724F00206C4F0020F04E002032
:10B62400218E0100F84E0020ED8D0100FC4E00201B
:10B63400104F0020144F0020184F00201C4F0020F2
:10B64400DC430020684E0020004F0020804E002084
:10B65400844E0020884E00208C4E0020904E002006
:10B6640024430020544F002028430020F84D00209C
:10B67400DFF800F041BA001080B5074900200870D7
:10B68400064908700649087006490870FFF7F0FF7C
:10B6940005490020087001BDF1430020F243002059
:10B6A400F3430020F4430020624F002005490A8838
:10B6B400FF2A05D10880782200210348FEF722BA28
:10B6C400704700BFAC41002048430020DFF800F081
:10B6D400D1070110DFF800F009FC0010DFF800F0DA
:10B6E400E57D011038B5124C124D20702878C00049
:10B6F400FDF794FB10490860C0B1002108E04FF643
:10B70400FF7220F8312000EBC10300225A60491C6B
:10B714002A789142F3DB0520FFF7D8FF2078FFF762
:10B72400D9FFBDE832400548FFF7D8BF31BD00BF9F
:10B73400604F0020694F0020D84E0020D1DC01006A
:10B7440070B50C4C0C482568826855F8106F0B498D
:10B75400031D0120B04718B1206850F8081F88471E
:10B7640000F00EF8216851F8142F4FF0FF30904785
:10B77400F6E700BF80420020D0400020658B010026
:10B784002DE9F04F83B000F0E3F800245FEA0008ED
:10B7940003D000F0EFF84FF0FF385F48006828B19D
:10B7A400804703E05D49096801B188475C4F5D4EFD
:10B7B4003B6853F81C5F01AA69460DF10100A847D4
:10B7C40059495A4D0A7800282ED10198A0F10C0944
:10B7D40099F806100329E5D09DF8000000251146CC
:10B7E40000E06D1C8D4206D2F268525D8242F8D1AF
:10B7F400EDB2FF2D04D1386850F8081F8847D5E70B
:10B8040099F80400FDF752FB99F80610012902D1BA
:10B814000199087003E0022904BF01998870019915
:10B824002846FDF71BF9C1E72868E4B230F8140094
:10B8340018B9641CE0B29042F6D3E0B290428DF89D
:10B844000020DFF8EC90DFF8ECA023D2DAF8000057
:10B8540080472968E4B231F814B0002221F814209A
:10B86400D9F800108847344A3470594652F82420D5
:10B87400204690478346FF203070DAF80000804766
:10B88400296831F814204BEA020221F81420D9F86F
:10B894000010884700F05CF8044644451DD004B904
:10B8A400264C27480068DAF80010A04238BF044646
:10B8B4008847396851F8202F804670689047B268ED
:10B8C4002049521CB26020463C6854F80CCF331D0A
:10B8D400E047D9F80010404688471B491B4E0868CA
:10B8E40028B13968306851F8242F904711E00024BA
:10B8F4000AE02868E4B230F8140020B139683068EE
:10B9040051F8242F9047641C9DF80010E0B288423F
:10B91400EFD3BDE8F78F00BF30430020344300204D
:10B9240080420020D040002000DF0100C8430020F6
:10B934002843002024430020507F01008EC2F528B4
:10B9440040430020658B01002C4300203843002035
:10B954000648016841B106484A680968824298BFAE
:10B9640010460029F8D1704700207047CC430020CE
:10B974008EC2F5282DE9F0411448154C016851F8A0
:10B98400182F90472768064612480568B5F57A7F50
:10B99400A6EB070813D0A5FB08014FF47A72002325
:10B9A40000F01AF880460E464FF47A72A2FB0801A2
:10B9B40002FB061100232A4600F00EF8C619266081
:10B9C4004046BDE8F04100F09BB800BF8042002033
:10B9D400D04300203C4300201B4213D1094236D1FE
:10B9E4002AB18446B0FBF2F002FB10C2704700F0AB
:10B9F400AFB8FCD30022002370470B0002000021E3
:10BA040000207047904271EB030CF6D370B5B1FA85
:10BA140081F4B3FA83F52C1BA340C4F1200532FA58
:10BA240005F63343A2405FF00046E64002E05B08BF
:10BA34005FEA3202841A71EB030524BF20462946CB
:10BA44007641F4D302000B003000002170BD012ABE
:10BA5400CFD970B5140C20D0B1FA81F4B2FA82F5C2
:10BA6400C4F120046419B4F12006D6D3B2405FF0C7
:10BA74000044F440002502E052085FEA3303C61A8A
:10BA840071EB020E24BF3046714664416D41F3D31D
:10BA940002000B002000290070BD0C46B1FBF2F13E
:10BAA40002FB11452D0445EA1045B5FBF2F402FBF7
:10BAB400145580B240EA0545B5FBF2F002FB105282
:10BAC40040EA044070BD02460229107803D151783F
:10BAD40000EB01207047032906D15178927800EBDE
:10BAE400012000EB02407047042908D15178937873
:10BAF40000EB0120D17800EB034000EB01607047BC
:10BB040070B504460E48016888470E4A1368E31866
:10BB1400B3F57A7F0BD34FF47A71B3FBF1F50A498D
:10BB24000E68AE190E604FF47A7101FB15330749A4
:10BB340013600A6890472046BDE8704000F012B8D0
:10BB440024430020C0430020C44300202843002095
:10BB5400704701700A0A42700A0C090E8270C170A3
:10BB6400001D70472DE9F147334FDFF8D080386866
:10BB7400DFF8CC9081B0804732490A6803460198C7
:10BB840082180A601846D8F800108847D9F800606F
:10BB9400002E4ED00025386880478246BDF8060046
:10BBA4000024002804BF9DF80500002807D130793F
:10BBB4009DF80420904202D3801A307106E0706828
:10BBC400019981423ABF401A70607460B08860B9CC
:10BBD400F18861B9F06800281CBF318900290AD0B6
:10BBE400B07AFDF75BF8F0687060B08808B9F18846
:10BBF40009B1308938B93068002D0CBFC9F800008C
:10BC04002860344600E035463668D8F800105046BF
:10BC1400884764B1A188002904BFE088002803D1C3
:10BC24002189A07AFDF73AF82046FDF7DDF8002EC9
:10BC3400B1D1BDE8F38700BF24430020284300208E
:10BC4400CC430020D443002001490860704700BF62
:10BC54003443002070B505460B4801688847064602
:10BC640005F1080080B2FDF7D9F8040005D00748B3
:10BC7400A580016821600460083405490A683046DB
:10BC84009047204670BD00BF244300204443002059
:10BC94002843002070B504460F48016888470F4ABE
:10BCA40005461068002101E00146006870B100F10A
:10BCB40008039C4222BF86889B19A342F4D30368DD
:10BCC40000290CBF13600B60FDF78EF82846BDE811
:10BCD400704003490A68104724430020444300206D
:10BCE4002843002001460648006838B100F10802E4
:10BCF400914222BF8388D2188A42F5D3704700BF8D
:10BD0400444300202DE9F04106460C46200448BF78
:10BD140084F400402FD420002CD0184801688847B0
:10BD240027468046002524FA05F0C00708D46D1C78
:10BD34000F2DF8DB12490A6840469047B8B21AE062
:10BD4400104A11481188891BC1EB0111691800EBD5
:10BD5400C1070120396800FA05F509B178688847F8
:10BD6400A9B2304600F012F808B93860786085EA64
:10BD74000407DFE70020BDE8F08100BF2443002072
:10BD840028430020AC41002048430020F8B5054674
:10BD940008480E460168884707463146284600F0A1
:10BDA4000DF8002400B1446803490A6838469047F6
:10BDB4002046F2BD244300202843002002460548C3
:10BDC400006828B103898B4204BF837A9342F7D178
:10BDD400704700BFCC4300202DE9F04706461848C1
:10BDE400184D8A46016888470F2E814621DA164885
:10BDF40050F83600E8B1154F38880F2196FBF1F85A
:10BE0400C8EB08140121341B01FA04F44044A1B224
:10BE1400C0B2FFF7BBFF60B1388880445246A1B27C
:10BE24005FFA88F000F014F8296848468847002033
:10BE340003E02968484688470220BDE8F08700BF30
:10BE4400244300202843002048430020AC41002024
:10BE5400F8B50D460C4904460868164608B9FFF7BC
:10BE640089FD0A4908688047074632462946204624
:10BE740000F010F8064A11680446384688470CB1A9
:10BE84000020F2BD0820F2BDCC4300202443002052
:10BE94002843002070B504460D461646FFF78EFF72
:10BEA40008B1466070BD1020FCF7B8FF78B1847209
:10BEB4000581466000210160C16005490A6812B924
:10BEC400086070BD0A4611680029FBD1106070BD7E
:10BED400CC430020F8B504461448154E0168884741
:10BEE4000F2C05461DDA134F57F83400C8B1124B16
:10BEF4000F2194FBF1F0C0EB00120121A21A914032
:10BF04001A88101889B2C0B200F018F8002007EBA4
:10BF1400C40147F83400486028463268904700203E
:10BF2400F2BD3168284688470220F2BD2443002030
:10BF34002843002048430020AC41002070B504464B
:10BF44000A480D4601688847064629462046FFF7F9
:10BF540035FF040018BF00F00DF805490A683046A3
:10BF640090470CB1002070BD062070BD2443002012
:10BF74002843002008B10021018170472DE9F84FC2
:10BF840080462448244D0E46016892461C46884744
:10BF940083465FEA080004D129685846884702208E
:10BFA40029E00A98DFF874908DF82800002759F8E2
:10BFB4003700C8B90A9901290CBF194B194B0F2036
:10BFC40097FBF0F0C0EB001E0121A7EB0E0C01FA69
:10BFD4000CFC1FFA8CF1DFF850C0BCF800E0704490
:10BFE4005246C0B2984740B17F1C0F2FDFDB29684F
:10BFF400584688470820BDE8F28F09EBC70049F886
:10C004003780466004B12770296858468847002065
:10C01400F1E700BF244300202843002048430020C8
:10C02400A1C0010055BE0100AC41002070B5134C05
:10C03400FCF762FF2568124B55F8046F114A124948
:10C044005020B04718B1206850F8081F88470F499E
:10C054000868804704460E48FEF75CFF0D48FFF76A
:10C06400F3FDFEF791F9FEF78FFF0B490A682046AE
:10C074009047FFF765FB002070BD00BF80420020A1
:10C0840038430020EE430020C5DB01002443002098
:10C09400907B0100498A010028430020F8B504463A
:10C0A4000B480D460168164688470746324629461E
:10C0B4002046FFF7EFFE0400064918BFE6600A6851
:10C0C400384690470CB10020F2BD0820F2BD00BFF5
:10C0D400244300202843002080B5074880470749AF
:10C0E40007480A6807490260074A136843600A68F8
:10C0F4008260064AC26001BD41490010204300200D
:10C10400F84400202843002024430020787F0100C5
:10C11400DFF800F01109011038B50C46200417D5DA
:10C124000C480078FCF742FD05000ED02878B028B2
:10C1340008D12846FFF7ECFF20B1297905F1080062
:10C14400FEF7D2FC2846FCF767FD84F4004032BDBC
:10C15400002032BD604F00200022002803BF0348A6
:10C164000078087002221046704700BF614F00201B
:10C1740001460020C90705D50023102201210248E9
:10C1840000F00CB8704700BFE0400020DFF800F07A
:10C1940009FB0010DFF800F08108011030B504003D
:10C1A40083B01D460FD0ADF800108DF80220019425
:10C1B4006846FFF7EBFF010006D12DB160892946DF
:10C1C400FFF7E8FF3EBD02203EBD7047DFF800F0F8
:10C1D400598E0110DFF800F05D83011038B5044674
:10C1E4000C4DFDF759F8288029466088FFF7EEFFCB
:10C1F40000282189288805D0814228BF014629804A
:10C20400162032BD814228BF01466088FFF7E2FF55
:10C21400002032BDFC4C00202DE9FC4104460D46B3
:10C224009046002000270DE0019070880090B388AC
:10C23400B2686088FEF79EFA162816D10021B16014
:10C244007F1CFFB20C490A78974213DA69680C2301
:10C254007B430B441E46318861B1781C90421BBF5E
:10C264009889002818201620DEE70028E8D03188B5
:10C27400A8F80010BDE8F681614F0020DFF800F057
:10C284000914011038B505460C46FFF7F7FF28B925
:10C294004FF6FF70FFF7F2FFB8B10580002100E010
:10C2A400491C0B4B1B78CAB29A420ED24268C9B2DF
:10C2B4000C234B4313441A88002AF1D10C22214643
:10C2C4001846FDF7E6FB002032BD092032BD00BF51
:10C2D400614F0020F8B5044600260F4D0BE0B86806
:10C2E40008B1FFF7D7FC0C2200213846FDF70AFC01
:10C2F40000203880761C2978F0B2884207D2606822
:10C30400F6B20C217143471838880028E7D14FF65C
:10C31400FF702080F1BD00BF614F00207CB5044652
:10C3240001A800904FF6FF7502230A4A294601200E
:10C33400FEF7DEFB0BE0F06801682046FEF7CEFD59
:10C34400BDF80420002329463046FEF7D5FB06003D
:10C35400F1D173BDE6A3010010B50B4600240C49CE
:10C3640020B1012808D0042809D00DE015220C3191
:10C374001846FDF78EFB08E00889188005E018468A
:10C384000822FDF755FD00E00224204610BD00BF41
:10C39400F040002001460020C90705D5034B04489E
:10C3A40010220721FFF7FABE704700BF90890100F1
:10C3B40014410020DFF800F0D57F0110DFF800F011
:10C3C400917E0110DFF800F08D1C0110DFF800F001
:10C3D400F91B0110DFF800F0C11D011070B504460F
:10C3E4000025A088FCF74CFF0646A088FFF7E2FF73
:10C3F400042801BF1448A1880288914204BF4FF663
:10C40400FF7101801EB13578A088FFF7D7FF0F4E6A
:10C414003078010008D0854206D10D490978FFF72C
:10C42400D1FF48B100203070280005D0A379A2883C
:10C43400A0782946FFF7CAFF0648006818B1BDE88E
:10C444007040FFF7C7BF70BD9C4500205B4F0020C4
:10C454005C4F0020A44E002030B50C46200483B06D
:10C4640011D51D480078FCF7A1FB050009D02878F8
:10C47400032812BF0128E868FFF70CFC2846FCF7E4
:10C48400CBFB84F4004460070AD514496846D1E91B
:10C494000023C0E900230821FEF746FD84F00404CC
:10C4A40020070AD50E496846D1E90023C0E90023D4
:10C4B4000821FEF739FD84F00804E0060AD509498D
:10C4C4006846D1E90023C0E900230821FEF72CFDCA
:10C4D40084F0100420463EBDF0430020088A010089
:10C4E400108A0100188A010001490870704700BFD2
:10C4F400F243002001490870704700BFF343002055
:10C5040001490870704700BFF4430020DFF800F0D1
:10C51400C9C10010DFF800F0016F0110DFF800F06E
:10C52400896E0110DFF800F0CD6E0110DFF800F025
:10C53400196F0110DFF800F0B56E0110DFF800F09C
:10C54400716D0110DFF800F0EDBC0010DFF800F0B1
:10C55400996F00102DE9F04F0C46E00789B00CD517
:10C5640000F052F930B1002181609A48006801005E
:10C5740018BF804784F0010028E1A00710D50020EF
:10C58400069005900490039002900190009000237F
:10C59400012200213C20FFF7B9FF84F0020015E1DD
:10C5A4001D2560078C4E8D4F40F18580002007903B
:10C5B4008346386890F8A00000F030F980464FF4C4
:10C5C400907008EB000A3868C07A98F8269102281F
:10C5D40018BF032806D106F10D00FFF79BFF08B929
:10C5E40006F1070B51464846FFF798FF90B33868A9
:10C5F400807A010018BF012804D131465046FFF764
:10C6040091FF04E0524649463046FFF78FFFFF286A
:10C6140034D005FB00F906EB090506225146E81D56
:10C62400FDF737FA16F8090040F00209E81D0790F3
:10C6340006223868807E00F0010088F8260105F1A2
:10C64400010A386800F114014FF490704044FDF77A
:10C6540020FA13E051464846FFF76CFF70B152468A
:10C6640049463046FFF762FFFF2807D0684330444D
:10C674000D30FFF74FFF08B149F0020908F12C0112
:10C6840008F106000A7806924B464A891209059277
:10C69400828B04920122C988CDF804B04908039121
:10C6A400CDF800A00799029101780020FFF72EFF32
:10C6B40084F004008AE0200610D50020069005903E
:10C6C4000490039002900190009000230122002125
:10C6D4003B20FFF71BFF84F0800077E0E0043BD5AC
:10C6E400F11D06F10D00FFF729FF38684179012992
:10C6F40023D1017A012918BF04291ED1C17A022944
:10C7040018BF032919D1817E00F114023046FFF7C6
:10C714000DFFFF2811D06843351805F10D00FFF710
:10C72400F9FE50B9E91D05F10D00FFF707FF386860
:10C734000622E91D1430FDF7ACF92948426829485E
:10C7440000784FF48051FFF783FB10B18E20FFF780
:10C75400F9FE84F4805039E0A00505D500F068F8AE
:10C76400214901200860FEE7600504D500F064F863
:10C7740084F480602AE0600405D58120FFF7E2FE9E
:10C7840084F4804022E0A0041FD5184D18494FF0CE
:10C79400FF300860FFF7DAFE29682031684609682F
:10C7A4008847002000906B4612482D68124A1349AE
:10C7B4000290002003902D681148A8471149086091
:10C7C40000F058F884F4005000E0002009B0BDE8FF
:10C7D400F08F00BF204F0020AC450020104F0020F8
:10C7E400784E00206E4F0020FC002043F04E0020C5
:10C7F400044F002079D201002C4D00206845002010
:10C80400B8410020EC4E00200348017809B140688B
:10C8140070470020704700BFDC430020034949688B
:10C824004FF4C07250430844704700BF684E002064
:10C83400EFF3108072B6704770477047DFF800F06E
:10C84400ED6F0010DFF800F0818B0110DFF800F0CD
:10C85400D9490010DFF800F079840010DFF800F007
:10C86400CD820010DFF800F021860010DFF800F020
:10C87400B56C0110424B434870B51B680068424CCC
:10C88400424D183300221B684FF0FF31984740484F
:10C894004049406B8068407908700026FFF7CEFF5E
:10C8A4003D48FFF7CFFFFFF7D1FF3C480268002166
:10C8B4005171A0220168CA8007224A7203210268CA
:10C8C40011720021026851770268D176026882F8F9
:10C8D4005C10012102681177026882F85D10002162
:10C8E400006880F85E100EE06068F6B24FF4C07124
:10C8F400714308444079012804D13046FFF78EFF84
:10C90400FFF7A8FF761C2978F0B28842ECD3FFF732
:10C91400A5FF234823490078087000F063F8FFF767
:10C92400A1FF2149214A00200870214908700120F3
:10C934002049087000202049087001201F49087010
:10C9440000201F4908701F4908701F4908801B20D8
:10C954001E4908804FF4A4701D490880FB201D491E
:10C96400088040F648001C490880FB2111801B49BF
:10C974000880FFF77BFF1A490020087070BD00BFD4
:10C98400F04E0020EC4E0020684E00207B4F00202B
:10C99400D0890100714F0020CC470020104F0020A7
:10C9A4006D4F00207A4F0020734F00204C4F002021
:10C9B400744F0020754F0020764F0020774F0020E1
:10C9C400784F0020794F0020524F0020444F002020
:10C9D400464F0020484F00204A4F00204E4F002071
:10C9E4006F4F002070B50021FF220B480B4B09E06C
:10C9F400182486684C43264400257570491C8568B4
:10CA04002A55C9B21C78A41CA142F1DB0021827012
:10CA14000180416070BD00BFDC4300207B4F0020DB
:10CA240070B504460D4616460C20FCF7E5F978B1BE
:10CA3400902101704480FF214170C5800221017161
:10CA44008660014603480078FCF708F8002070BDB2
:10CA5400132070BD654F0020DFF800F03D71001019
:10CA6400DFF800F0B1970110DFF800F0B99701107A
:10CA74002DE9FE4FDFF89082D8F80400029018B92F
:10CA8400BDE8F74FFFF7E8BF0078DFF880A2A04EBB
:10CA9400DFF880B2A04C01281CBF0228042846F20B
:10CAA400A81705D0402818BF802800F08D8028E101
:10CAB40000F03AF90028FAD00298007800F03AF928
:10CAC40081466078D9F80450002859D000F0D6F98E
:10CAD400FFF7A4FE019000680090014647684846AD
:10CAE40000F0B0FA022827D099F800100129DED10D
:10CAF4008A490968097A1BF80110317028B9FFF7CF
:10CB0400AFFF00F5E8504C30A8602869C17E01F001
:10CB1400EF01C1762869C17E41F08001C1762869A0
:10CB2400C17E01F0F00141F00201C176B8687C4990
:10CB340008182969C86142E000980078802810D15B
:10CB44000820307077480078012802D060780228E5
:10CB540001DB012002E0DAF8280000783969C872A4
:10CB64000AE007206F4930700978386901291CBF31
:10CB7400DAF828104978C17201988079A0706DE0C4
:10CB8400B9F1000F93D00298484508BF48461AD01F
:10CB940099F8000001288AD160480068007A1BF8DF
:10CBA40000003070FFF75CFF3918A868FFF75CFFDE
:10CBB40028B9FFF755FF00F5E8504C30A860012074
:10CBC40088F80200484698E06078002870D000F0A9
:10CBD40055F9FFF723FE8146D9F800000190456816
:10CBE400A078FFF71BFE029000F050FA07210842DC
:10CBF40036D098F8020000F09DF80090476801993B
:10CC040000F020FA02282BD000990978012927D1B5
:10CC140042490968097A1BF80110317028B9FFF7F5
:10CC24001FFF00F5E8504C30B8603869C17E01F050
:10CC3400EF01C1763869C17E41F08001C17638695F
:10CC4400C17E01F0F00141F00201C176A8683449C7
:10CC540008183969C861012088F8020000984CE07E
:10CC64000298484522D001980078802810D10820E5
:10CC740030702C480078012802D06078022801DB4B
:10CC8400012002E0DAF8280000782969C8720AE075
:10CC94000720244930700978286901291CBFDAF873
:10CCA40028104978C17299F80600A070019824E010
:10CCB40000F0ECF90721084223D098F8020000F0B4
:10CCC40039F8054628786C6801281AD11348006899
:10CCD400007A1BF800003070FFF7C2FE3918A06814
:10CCE400FFF7C2FE28B9FFF7BBFE00F5E8504C3051
:10CCF400A060012088F802002846BDE8FE4F00F03D
:10CD0400CBB9BDE8F78F00BFDC430020D089010018
:10CD14006F4F0020289A0110684E0020104F002009
:10CD2400F0D8FFFF734F002001480078704700BF20
:10CD3400DC4300202DE9F0410746FF2F1AD100F013
:10CD4400A5F9072108420FD0042000F0F7F908B133
:10CD540004200BE0012000F0F1F908B1012005E006
:10CD6400022000F0EBF9002872D00220BDE8F04167
:10CD740000F000BA00F0FEF98046012FD8F8045004
:10CD8400354E04D0022F24D0042F38D060E0022086
:10CD940000F0D4F988B1022000F0ECF90746012034
:10CDA4007C6800F0CBF930B1A0683118A868FFF7AF
:10CDB4005BFE00284AD038464BE0042000F0BEF960
:10CDC40028B1042000F0D6F90746012020E0012014
:10CDD40037E0042000F0B2F928B1042000F0CAF9C9
:10CDE4000746022014E0012000F0A8F928B1012030
:10CDF40000F0C0F9074602200AE0022021E00120E9
:10CE040000F09CF930B1012000F0B4F90746042089
:10CE14007C6809E0022000F091F988B1022000F05A
:10CE2400A9F9074604207C6800F088F90028C2D0DC
:10CE3400A0683118A868FFF717FE0028BBD105E0E9
:10CE4400042000F07BF908B94FF00008404600E0E8
:10CE54000020BDE8F08100BF589EFFFFDFF800F01E
:10CE640071900010DFF800F09D920010DFF800F0E0
:10CE7400DD8F0010DFF800F0018300102DE9FE4F74
:10CE8400FFF7EEFD4FF0000A00F6C4170026674DC9
:10CE9400674C11E03046FFF7C1FC417951B12A6873
:10CEA400817902F80A100AF101015FFA81FA394620
:10CEB400FFF7D4FF761CF6B220788642EADB5D4F9A
:10CEC400787882451CBF8220FFF7CCFF7878012850
:10CED40011D1002601E0761CF6B22078864207DAEA
:10CEE4003046FFF79BFC41790029F4D080799BE020
:10CEF4008220FFF7B7FF79782868FFF7B7FF286823
:10CF04000078FFF78BFC00260068D0F80480012429
:10CF140001E04E46641C544506F101090ADA28680A
:10CF2400005DFFF77BFC00684068D8F80810806853
:10CF34008142EED02868F6B2002E1DBF4E46F1B2F3
:10CF4400002990F800904FF4C07816D090F8009023
:10CF540001240FE0015D7A6808FB01F308FB09FC7A
:10CF640013446244B3F85A31B2F85A21934238BF99
:10CF74008946641CF6B2B442ECDB4FF6FF70FFF74F
:10CF840079FF019040F6C4144846FFF747FC002699
:10CF9400006840680290019840086043009017E0E0
:10CFA4004846FFF73BFC01680A78802A03D1DBF886
:10CFB4001030009A5A610978402908D11E498079B5
:10CFC400096801EB4010009901F5A061C161761C6C
:10CFD400564528DA2868805D8145F8D0796808FBD1
:10CFE40000F21144B1F85A21CB895908914202D276
:10CFF400991A8A45EBDAFFF711FC0068D0F804B0FF
:10D00400029A0198DBF80810926800EBD070401087
:10D01400A1F6C41104FB0020FFF726FD0028BFD0B1
:10D02400286810F806904846BDE8FE8F004F00209F
:10D034007B4F0020684E0020844E0020DFF800F073
:10D04400DD97011070B54C684568D8B1FFF708FD4D
:10D0540000F6C416A0683146FFF7F0FF48F6B901A0
:10D0640088420FD3A06808490918A868FFF7FCFC98
:10D0740040B906F58841A8685C31FFF7F5FC10B1AA
:10D08400012070BD022070BD4877FFFF0148407841
:10D09400704700BFDC4300201CB504461E484460B2
:10D0A4006069010018BF80476068017B01F00F01CF
:10D0B40002290CBF8068FFF7D3FCA0602078802889
:10D0C40018BF402811D115480021017041708170AA
:10D0D400C170017141718171C171017241728172BA
:10D0E400C17201734173C17301610D480D4B007826
:10D0F400002814BF0C480D480021CDE9000102228C
:10D1040061680B4C0B482468006808342468A04705
:10D114000949088013BD00BFDC4300205C4D00209A
:10D12400784E002019DE010002048480020480800D
:10D13400F04E0020EC4E0020424F002010B50B4A68
:10D144009268002118234B43D45C844202BFD31855
:10D154005B78012B01D1012010BD054B1B78491CC4
:10D16400C9B29B1C9942EDDB002010BDDC430020BA
:10D174007B4F002010B50B498B68002218215143C6
:10D184005C5C844202BF59184C78012C01D10846DA
:10D1940010BD05490978521CD2B2891C8A42EDDBC4
:10D1A400002010BDDC4300207B4F002010B500237D
:10D1B400154A916818245C4321444C78D4B90C78FE
:10D1C400FF2C02D05468A14214D0087000234B6095
:10D1D4004B6101234B7053780343537013785B1CEA
:10D1E4001370DBB2012B1CBF8028402800D1516092
:10D1F400084610BD054909785B1CDBB2891C8B42CB
:10D20400D7DB002010BD00BFDC4300207B4F002093
:10D214000168002202604A7007480978427822EACD
:10D22400010141700178491E0170C9B219B9416008
:10D234000020024908707047DC4300206F4F002033
:10D2440010B50A4A9268002118234B43D45C8442E7
:10D2540002D1D018407810BD054B1B78491CC9B2C7
:10D264009B1C9942F0DB002010BD00BFDC43002072
:10D274007B4F002002494FF6FF700880704700BFC3
:10D28400CA000021F0B56E486E4C03786E486F4AB0
:10D294006F490D2B83B041D8DFE803F0D1070707AE
:10D2A40007CCCC58CC8E8EACACB0046041F20445B3
:10D2B40068494C88AC421FBF4E8BAE424E8EAE4284
:10D2C40003D11580644901606EE0022C634D148023
:10D2D4004FF4A05641F2024736D94FF4806CB4EBB8
:10D2E4000C041CD0241F012C1FD94FF47F7CB4EBF9
:10D2F4000C041CD04FF4406CB4EB0C040FD0A41EEF
:10D30400012C0CD9241F0AD0641E012C0DD940F223
:10D31400F932A41A012C17D9241F08D08AE0022B51
:10D3240014BF16804E4D05603EE04E4DFBE74E4A5D
:10D334001268127A012A03D14F804F834F86F2E795
:10D344004E804E834E86EEE7832074E04749897809
:10D35400FF2974D0464B046018241B6861431944A8
:10D3640040F204444B8813801B1B012B414A66D9AD
:10D374004FF47F741B1B0FD04FF440641B1B032B13
:10D3840084BF5B1F012B0AD99B1E012B57D940F286
:10D39400FD341B1B05D102E041F201434B800260C6
:10D3A40002E08520FFF75EFD03B0BDE8F04032489F
:10D3B40000780121FBF772BC4888108040F20442D7
:10D3C40090421CBF41F20842904238D041F6040218
:10D3D400904211D1294C2A4A24682A480068002323
:10D3E400CDE900230834284B24680222A0472749AA
:10D3F4000880F7BD4888108085201CE0488810808C
:10D4040002280DD940F20442801A18D040F6FC726A
:10D41400801A05D0083812D04FF47F72801AEBD1ED
:10D42400887B801CC0B2B528A8BF66208873002002
:10D434004880F7BD8420BDE8FE40FFF713BDF7BD6B
:10D444006F4F002065DE0100204F0020504F002068
:10D45400CC4C0020204A002059550110615A01107B
:10D46400B1540110755B0110104F0020684E00206C
:10D47400804E0020313901106E4F0020F04E002004
:10D4840002000080EC4E002019DE0100424F002013
:10D49400DFF800F0DD86001080B506488078FF28AC
:10D4A40006D0FFF7BBF9BDE804400021FFF7F0BF49
:10D4B40001BD00BF684E0020DFF800F0518C011060
:10D4C400DFF800F051700110DFF800F07570001003
:10D4D4006548007800B970472DE9F043401E0328E1
:10D4E40085B004D9801F012840F2BA80B5E05F4CB2
:10D4F400DFF87C812068DFF87C9100685E4F00F1E2
:10D504000805062205F1080102A8FCF7C2FA062262
:10D51400A91C6846FCF7BDFA2978C8091D2601F044
:10D524000F02032AC1F3801537D16179C1F3800159
:10D5340088421ED12169062202A8FCF7EDFA0028D0
:10D544000AD069462846FEF7E9FF002804D0394688
:10D554006846FEF7E7FFFF287AD0D9F80010897AE9
:10D5640070433D180A0018BF02290AD0012918BFC8
:10D5740003296DD13A5C691C4046FFF79DFF1028D2
:10D5840066D06B46EA1D29464046FFF799FF0622FE
:10D594006946E81DFCF77DFA5AE001F00F01052900
:10D5A4005ED16179C1F38001884251D1216906229B
:10D5B40002A8FCF7B1FA00284AD069462846FEF7CB
:10D5C400ADFF002844D039466846FEF7ABFFFF287C
:10D5D4003ED006FB00F5D9F80000807A7E190100E0
:10D5E40018BF01280AD0022818BF032830D17A5D59
:10D5F400711C4046FFF760FF102829D040F202401A
:10D60400FFF762FF6B46F21D31464046FFF758FFB5
:10D6140006226946F01DFCF73CFAD9F80010785D43
:10D6240088760622D9F80000711C1430FCF731FA10
